{
  "contractName": "Certification",
  "abi": [
    {
      "inputs": [
        {
          "internalType": "contract Institution",
          "name": "_institution",
          "type": "address"
        }
      ],
      "stateMutability": "nonpayable",
      "type": "constructor"
    },
    {
      "anonymous": false,
      "inputs": [
        {
          "indexed": false,
          "internalType": "bytes32",
          "name": "_certificateId",
          "type": "bytes32"
        }
      ],
      "name": "certificateGenerated",
      "type": "event"
    },
    {
      "anonymous": false,
      "inputs": [
        {
          "indexed": false,
          "internalType": "bytes32",
          "name": "_certificateId",
          "type": "bytes32"
        }
      ],
      "name": "certificateRevoked",
      "type": "event"
    },
    {
      "inputs": [],
      "name": "institution",
      "outputs": [
        {
          "internalType": "contract Institution",
          "name": "",
          "type": "address"
        }
      ],
      "stateMutability": "view",
      "type": "function",
      "constant": true
    },
    {
      "inputs": [],
      "name": "owner",
      "outputs": [
        {
          "internalType": "address",
          "name": "",
          "type": "address"
        }
      ],
      "stateMutability": "view",
      "type": "function",
      "constant": true
    },
    {
      "inputs": [
        {
          "internalType": "string",
          "name": "_id",
          "type": "string"
        },
        {
          "internalType": "string",
          "name": "_candidate_name",
          "type": "string"
        },
        {
          "internalType": "uint256",
          "name": "_course_index",
          "type": "uint256"
        },
        {
          "internalType": "string",
          "name": "_creation_date",
          "type": "string"
        },
        {
          "internalType": "string",
          "name": "grades",
          "type": "string"
        },
        {
          "internalType": "string",
          "name": "typeOfCertificat",
          "type": "string"
        }
      ],
      "name": "generateCertificate",
      "outputs": [],
      "stateMutability": "nonpayable",
      "type": "function"
    },
    {
      "inputs": [
        {
          "internalType": "string",
          "name": "_id",
          "type": "string"
        }
      ],
      "name": "getData",
      "outputs": [
        {
          "internalType": "string",
          "name": "",
          "type": "string"
        },
        {
          "internalType": "string",
          "name": "",
          "type": "string"
        },
        {
          "internalType": "string",
          "name": "",
          "type": "string"
        },
        {
          "internalType": "string",
          "name": "",
          "type": "string"
        },
        {
          "internalType": "string",
          "name": "",
          "type": "string"
        },
        {
          "internalType": "string",
          "name": "",
          "type": "string"
        },
        {
          "internalType": "string",
          "name": "",
          "type": "string"
        },
        {
          "internalType": "string",
          "name": "",
          "type": "string"
        },
        {
          "internalType": "bool",
          "name": "",
          "type": "bool"
        }
      ],
      "stateMutability": "view",
      "type": "function",
      "constant": true
    },
    {
      "inputs": [
        {
          "internalType": "string",
          "name": "_id",
          "type": "string"
        }
      ],
      "name": "revokeCertificate",
      "outputs": [],
      "stateMutability": "nonpayable",
      "type": "function"
    }
  ],
  "bytecode": "0x60806040523480156200001157600080fd5b5060405162001b8638038062001b8683398181016040528101906200003791906200013d565b336000806101000a81548173ffffffffffffffffffffffffffffffffffffffff021916908373ffffffffffffffffffffffffffffffffffffffff16021790555080600160006101000a81548173ffffffffffffffffffffffffffffffffffffffff021916908373ffffffffffffffffffffffffffffffffffffffff160217905550506200016f565b600080fd5b600073ffffffffffffffffffffffffffffffffffffffff82169050919050565b6000620000f182620000c4565b9050919050565b60006200010582620000e4565b9050919050565b6200011781620000f8565b81146200012357600080fd5b50565b60008151905062000137816200010c565b92915050565b600060208284031215620001565762000155620000bf565b5b6000620001668482850162000126565b91505092915050565b611a07806200017f6000396000f3fe608060405234801561001057600080fd5b50600436106100575760003560e01c8063142e15421461005c5780638da5cb5b146100785780638e39456914610096578063ae55c888146100b2578063d1384eb6146100ea575b600080fd5b6100766004803603810190610071919061107a565b610108565b005b610080610349565b60405161008d9190611104565b60405180910390f35b6100b060048036038101906100ab9190611155565b61036d565b005b6100cc60048036038101906100c7919061107a565b61080f565b6040516100e199989796959493929190611311565b60405180910390f35b6100f2610e2e565b6040516100ff9190611435565b60405180910390f35b60011515600160009054906101000a900473ffffffffffffffffffffffffffffffffffffffff1673ffffffffffffffffffffffffffffffffffffffff1663b350ce3c336040518263ffffffff1660e01b81526004016101679190611104565b602060405180830381865afa158015610184573d6000803e3d6000fd5b505050506040513d601f19601f820116820180604052508101906101a8919061147c565b1515146101ea576040517f08c379a00000000000000000000000000000000000000000000000000000000081526004016101e1906114f5565b60405180910390fd5b60006101f582610e54565b9050600060026000838152602001908152602001600020600201805461021a90611544565b80601f016020809104026020016040519081016040528092919081815260200182805461024690611544565b80156102935780601f1061026857610100808354040283529160200191610293565b820191906000526020600020905b81548152906001019060200180831161027657829003601f168201915b5050505050905060008151036102de576040517f08c379a00000000000000000000000000000000000000000000000000000000081526004016102d5906115c1565b60405180910390fd5b60016002600084815260200190815260200160002060080160006101000a81548160ff0219169083151502179055507f222e6f0e7dd20e77993dc592413db91f20cfba6c1833b91ee72aeeb0c2dc99ec8260405161033c91906115fa565b60405180910390a1505050565b60008054906101000a900473ffffffffffffffffffffffffffffffffffffffff1681565b60011515600160009054906101000a900473ffffffffffffffffffffffffffffffffffffffff1673ffffffffffffffffffffffffffffffffffffffff1663b350ce3c336040518263ffffffff1660e01b81526004016103cc9190611104565b602060405180830381865afa1580156103e9573d6000803e3d6000fd5b505050506040513d601f19601f8201168201806040525081019061040d919061147c565b15151461044f576040517f08c379a0000000000000000000000000000000000000000000000000000000008152600401610446906114f5565b60405180910390fd5b600061045a87610e54565b9050600060026000838152602001908152602001600020600201805461047f90611544565b80601f01602080910402602001604051908101604052809291908181526020018280546104ab90611544565b80156104f85780601f106104cd576101008083540402835291602001916104f8565b820191906000526020600020905b8154815290600101906020018083116104db57829003601f168201915b505050505090506000815114610543576040517f08c379a000000000000000000000000000000000000000000000000000000000815260040161053a90611687565b60405180910390fd5b600080600080600160009054906101000a900473ffffffffffffffffffffffffffffffffffffffff1673ffffffffffffffffffffffffffffffffffffffff16637c0edcdf336040518263ffffffff1660e01b81526004016105a49190611104565b600060405180830381865afa1580156105c1573d6000803e3d6000fd5b505050506040513d6000823e3d601f19601f820116820180604052508101906105ea919061185f565b935093509350935060008a10158015610603575080518a105b610642576040517f08c379a000000000000000000000000000000000000000000000000000000000815260040161063990611982565b60405180910390fd5b6000818b81518110610657576106566119a2565b5b602002602001015160000151905060006040518061012001604052808e81526020018381526020018c81526020018b81526020018a8152602001878152602001868152602001858152602001821515815250600260008a815260200190815260200160002060008201518160000190805190602001906106d8929190610e7d565b5060208201518160010190805190602001906106f5929190610e7d565b506040820151816002019080519060200190610712929190610e7d565b50606082015181600301908051906020019061072f929190610e7d565b50608082015181600401908051906020019061074c929190610e7d565b5060a0820151816005019080519060200190610769929190610e7d565b5060c0820151816006019080519060200190610786929190610e7d565b5060e08201518160070190805190602001906107a3929190610e7d565b506101008201518160080160006101000a81548160ff0219169083151502179055509050507ff54e0f0055ffae318a21890316ed523f8a60aa59aaa279dfdcae7176155ec0db886040516107f791906115fa565b60405180910390a15050505050505050505050505050565b6060806060806060806060806000806108278b610e54565b90506000600260008381526020019081526020016000206040518061012001604052908160008201805461085a90611544565b80601f016020809104026020016040519081016040528092919081815260200182805461088690611544565b80156108d35780601f106108a8576101008083540402835291602001916108d3565b820191906000526020600020905b8154815290600101906020018083116108b657829003601f168201915b505050505081526020016001820180546108ec90611544565b80601f016020809104026020016040519081016040528092919081815260200182805461091890611544565b80156109655780601f1061093a57610100808354040283529160200191610965565b820191906000526020600020905b81548152906001019060200180831161094857829003601f168201915b5050505050815260200160028201805461097e90611544565b80601f01602080910402602001604051908101604052809291908181526020018280546109aa90611544565b80156109f75780601f106109cc576101008083540402835291602001916109f7565b820191906000526020600020905b8154815290600101906020018083116109da57829003601f168201915b50505050508152602001600382018054610a1090611544565b80601f0160208091040260200160405190810160405280929190818152602001828054610a3c90611544565b8015610a895780601f10610a5e57610100808354040283529160200191610a89565b820191906000526020600020905b815481529060010190602001808311610a6c57829003601f168201915b50505050508152602001600482018054610aa290611544565b80601f0160208091040260200160405190810160405280929190818152602001828054610ace90611544565b8015610b1b5780601f10610af057610100808354040283529160200191610b1b565b820191906000526020600020905b815481529060010190602001808311610afe57829003601f168201915b50505050508152602001600582018054610b3490611544565b80601f0160208091040260200160405190810160405280929190818152602001828054610b6090611544565b8015610bad5780601f10610b8257610100808354040283529160200191610bad565b820191906000526020600020905b815481529060010190602001808311610b9057829003601f168201915b50505050508152602001600682018054610bc690611544565b80601f0160208091040260200160405190810160405280929190818152602001828054610bf290611544565b8015610c3f5780601f10610c1457610100808354040283529160200191610c3f565b820191906000526020600020905b815481529060010190602001808311610c2257829003601f168201915b50505050508152602001600782018054610c5890611544565b80601f0160208091040260200160405190810160405280929190818152602001828054610c8490611544565b8015610cd15780601f10610ca657610100808354040283529160200191610cd1565b820191906000526020600020905b815481529060010190602001808311610cb457829003601f168201915b505050505081526020016008820160009054906101000a900460ff16151515158152505090506000600260008481526020019081526020016000206002018054610d1a90611544565b80601f0160208091040260200160405190810160405280929190818152602001828054610d4690611544565b8015610d935780601f10610d6857610100808354040283529160200191610d93565b820191906000526020600020905b815481529060010190602001808311610d7657829003601f168201915b505050505090506000815103610dde576040517f08c379a0000000000000000000000000000000000000000000000000000000008152600401610dd5906115c1565b60405180910390fd5b816000015182602001518360400151846060015185608001518660a001518760c001518860e001518961010001519b509b509b509b509b509b509b509b509b505050509193959799909294969850565b600160009054906101000a900473ffffffffffffffffffffffffffffffffffffffff1681565b6000808290506000815103610e6f576000801b915050610e78565b60208301519150505b919050565b828054610e8990611544565b90600052602060002090601f016020900481019282610eab5760008555610ef2565b82601f10610ec457805160ff1916838001178555610ef2565b82800160010185558215610ef2579182015b82811115610ef1578251825591602001919060010190610ed6565b5b509050610eff9190610f03565b5090565b5b80821115610f1c576000816000905550600101610f04565b5090565b6000604051905090565b600080fd5b600080fd5b600080fd5b600080fd5b6000601f19601f8301169050919050565b7f4e487b7100000000000000000000000000000000000000000000000000000000600052604160045260246000fd5b610f8782610f3e565b810181811067ffffffffffffffff82111715610fa657610fa5610f4f565b5b80604052505050565b6000610fb9610f20565b9050610fc58282610f7e565b919050565b600067ffffffffffffffff821115610fe557610fe4610f4f565b5b610fee82610f3e565b9050602081019050919050565b82818337600083830152505050565b600061101d61101884610fca565b610faf565b90508281526020810184848401111561103957611038610f39565b5b611044848285610ffb565b509392505050565b600082601f83011261106157611060610f34565b5b813561107184826020860161100a565b91505092915050565b6000602082840312156110905761108f610f2a565b5b600082013567ffffffffffffffff8111156110ae576110ad610f2f565b5b6110ba8482850161104c565b91505092915050565b600073ffffffffffffffffffffffffffffffffffffffff82169050919050565b60006110ee826110c3565b9050919050565b6110fe816110e3565b82525050565b600060208201905061111960008301846110f5565b92915050565b6000819050919050565b6111328161111f565b811461113d57600080fd5b50565b60008135905061114f81611129565b92915050565b60008060008060008060c0878903121561117257611171610f2a565b5b600087013567ffffffffffffffff8111156111905761118f610f2f565b5b61119c89828a0161104c565b965050602087013567ffffffffffffffff8111156111bd576111bc610f2f565b5b6111c989828a0161104c565b95505060406111da89828a01611140565b945050606087013567ffffffffffffffff8111156111fb576111fa610f2f565b5b61120789828a0161104c565b935050608087013567ffffffffffffffff81111561122857611227610f2f565b5b61123489828a0161104c565b92505060a087013567ffffffffffffffff81111561125557611254610f2f565b5b61126189828a0161104c565b9150509295509295509295565b600081519050919050565b600082825260208201905092915050565b60005b838110156112a857808201518184015260208101905061128d565b838111156112b7576000848401525b50505050565b60006112c88261126e565b6112d28185611279565b93506112e281856020860161128a565b6112eb81610f3e565b840191505092915050565b60008115159050919050565b61130b816112f6565b82525050565b600061012082019050818103600083015261132c818c6112bd565b90508181036020830152611340818b6112bd565b90508181036040830152611354818a6112bd565b9050818103606083015261136881896112bd565b9050818103608083015261137c81886112bd565b905081810360a083015261139081876112bd565b905081810360c08301526113a481866112bd565b905081810360e08301526113b881856112bd565b90506113c8610100830184611302565b9a9950505050505050505050565b6000819050919050565b60006113fb6113f66113f1846110c3565b6113d6565b6110c3565b9050919050565b600061140d826113e0565b9050919050565b600061141f82611402565b9050919050565b61142f81611414565b82525050565b600060208201905061144a6000830184611426565b92915050565b611459816112f6565b811461146457600080fd5b50565b60008151905061147681611450565b92915050565b60006020828403121561149257611491610f2a565b5b60006114a084828501611467565b91505092915050565b7f496e73746974757465206163636f756e7420646f6573206e6f74206578697374600082015250565b60006114df602083611279565b91506114ea826114a9565b602082019050919050565b6000602082019050818103600083015261150e816114d2565b9050919050565b7f4e487b7100000000000000000000000000000000000000000000000000000000600052602260045260246000fd5b6000600282049050600182168061155c57607f821691505b60208210810361156f5761156e611515565b5b50919050565b7f436572746966696361746520696420646f6573206e6f74206578697374000000600082015250565b60006115ab601d83611279565b91506115b682611575565b602082019050919050565b600060208201905081810360008301526115da8161159e565b9050919050565b6000819050919050565b6115f4816115e1565b82525050565b600060208201905061160f60008301846115eb565b92915050565b7f4365727469666963617465207769746820676976656e20696420616c7265616460008201527f7920657869737473000000000000000000000000000000000000000000000000602082015250565b6000611671602883611279565b915061167c82611615565b604082019050919050565b600060208201905081810360008301526116a081611664565b9050919050565b60006116ba6116b584610fca565b610faf565b9050828152602081018484840111156116d6576116d5610f39565b5b6116e184828561128a565b509392505050565b600082601f8301126116fe576116fd610f34565b5b815161170e8482602086016116a7565b91505092915050565b600067ffffffffffffffff82111561173257611731610f4f565b5b602082029050602081019050919050565b600080fd5b600080fd5b600080fd5b60006020828403121561176857611767611748565b5b6117726020610faf565b9050600082015167ffffffffffffffff8111156117925761179161174d565b5b61179e848285016116e9565b60008301525092915050565b60006117bd6117b884611717565b610faf565b905080838252602082019050602084028301858111156117e0576117df611743565b5b835b8181101561182757805167ffffffffffffffff81111561180557611804610f34565b5b8086016118128982611752565b855260208501945050506020810190506117e2565b5050509392505050565b600082601f83011261184657611845610f34565b5b81516118568482602086016117aa565b91505092915050565b6000806000806080858703121561187957611878610f2a565b5b600085015167ffffffffffffffff81111561189757611896610f2f565b5b6118a3878288016116e9565b945050602085015167ffffffffffffffff8111156118c4576118c3610f2f565b5b6118d0878288016116e9565b935050604085015167ffffffffffffffff8111156118f1576118f0610f2f565b5b6118fd878288016116e9565b925050606085015167ffffffffffffffff81111561191e5761191d610f2f565b5b61192a87828801611831565b91505092959194509250565b7f496e76616c696420436f7572736520696e646578000000000000000000000000600082015250565b600061196c601483611279565b915061197782611936565b602082019050919050565b6000602082019050818103600083015261199b8161195f565b9050919050565b7f4e487b7100000000000000000000000000000000000000000000000000000000600052603260045260246000fdfea2646970667358221220d7c6ee6a7696308f4773b6b6ee6634bbf70c88d62214f88907945f332b07bcba64736f6c634300080d0033",
  "immutableReferences": {},
  "source": "// SPDX-License-Identifier: MIT\npragma solidity ^0.8.9;\n// pragma experimental ABIEncoderV2;\n\n\nimport \"./Institution.sol\";\n\ncontract Certification {\n    // State Variables\n    address public owner;\n    Institution public institution;\n\n    // Mappings\n    mapping(bytes32 => Certificate) private certificates;\n\n    // Events\n    event certificateGenerated(bytes32 _certificateId);\n    event certificateRevoked(bytes32 _certificateId);   \n\n    constructor(Institution _institution)  {\n        owner = msg.sender;\n        institution = _institution;\n    }\n\n    struct Certificate {\n        // Individual Info\n        string candidate_name;\n        string course_name;\n        string creation_date;               \n        string grades;\n        string typeOfCertificat;\n\n        // Institute Info\n        string institute_name;\n        string institute_acronym;\n        string institute_link;\n\n        // Revocation status\n        bool revoked;\n    }\n\n    function stringToBytes32(string memory source) private pure returns (bytes32 result) {\n        bytes memory tempEmptyStringTest = bytes(source);\n        if (tempEmptyStringTest.length == 0) {\n            return 0x0;\n        }\n        assembly {\n                result := mload(add(source, 32))\n        }\n    }\n\n    function generateCertificate(\n        string memory _id,\n        string memory _candidate_name,\n        uint256 _course_index, \n        string memory _creation_date,\n        string memory grades,\n        string memory typeOfCertificat\n        ) public {\n        require(institution.checkInstitutePermission(msg.sender) == true, \"Institute account does not exist\");\n        bytes32 byte_id = stringToBytes32(_id);\n        // require(certificates[byte_id].creation_date == 0, \"Certificate with given id already exists\");\n        bytes memory tempEmptyStringNameTest = bytes(\n            certificates[byte_id].creation_date\n        );\n        require(\n            tempEmptyStringNameTest.length == 0,\n            \"Certificate with given id already exists\"\n        );\n        (string memory _institute_name, string memory _institute_acronym, string memory _institute_link, Institution.Course[] memory _institute_courses) = institution.getInstituteData(msg.sender);\n        require(_course_index >= 0 && _course_index < _institute_courses.length, \"Invalid Course index\");\n        string memory _course_name = _institute_courses[_course_index].course_name;\n        bool revocation_status = false;\n        certificates[byte_id] = Certificate(_candidate_name, _course_name, _creation_date, grades, typeOfCertificat, _institute_name, _institute_acronym, _institute_link, revocation_status);\n        emit certificateGenerated(byte_id);\n    }\n\n    function getData(string memory _id) public view returns(string memory, string memory, string memory, string memory, string memory, string memory, string memory, string memory, bool) {\n        bytes32 byte_id = stringToBytes32(_id);\n        Certificate memory temp = certificates[byte_id];\n        // require(certificates[byte_id].creation_date != 0, \"Certificate id does not exist!\");\n        bytes memory tempEmptyStringNameTest = bytes(\n            certificates[byte_id].creation_date\n        );\n        require(\n            tempEmptyStringNameTest.length != 0,\n            \"Certificate id does not exist\"\n        );\n        return (temp.candidate_name, temp.course_name, temp.creation_date, temp.grades, temp.typeOfCertificat, temp.institute_name, temp.institute_acronym, temp.institute_link, temp.revoked);\n    }\n\n    function revokeCertificate(string memory _id) public {\n        require(institution.checkInstitutePermission(msg.sender) == true, \"Institute account does not exist\");\n        bytes32 byte_id = stringToBytes32(_id);\n        bytes memory tempEmptyStringNameTest = bytes(\n            certificates[byte_id].creation_date\n        );\n        require(\n            tempEmptyStringNameTest.length != 0,\n            \"Certificate id does not exist\"\n        );\n        certificates[byte_id].revoked = true;\n        emit certificateRevoked(byte_id);\n    }\n}",
  "sourcePath": "/home/talha-amin/Desktop/Certoshi/contracts/Certification.sol",
  "compiler": {
    "name": "solc",
    "version": "0.8.13+commit.abaa5c0e.Emscripten.clang"
  },
  "schemaVersion": "3.4.14",
  "updatedAt": "2023-07-29T09:11:52.479Z",
  "networkType": "ethereum",
  "devdoc": {
    "kind": "dev",
    "methods": {},
    "version": 1
  },
  "userdoc": {
    "kind": "user",
    "methods": {},
    "version": 1
  }
}