{
  "contractName": "Institution",
  "abi": [
    {
      "inputs": [],
      "stateMutability": "nonpayable",
      "type": "constructor"
    },
    {
      "anonymous": false,
      "inputs": [
        {
          "indexed": false,
          "internalType": "string",
          "name": "_instituteName",
          "type": "string"
        }
      ],
      "name": "instituteAdded",
      "type": "event"
    },
    {
      "inputs": [],
      "name": "owner",
      "outputs": [
        {
          "internalType": "address",
          "name": "",
          "type": "address"
        }
      ],
      "stateMutability": "view",
      "type": "function",
      "constant": true
    },
    {
      "inputs": [
        {
          "internalType": "address",
          "name": "_address",
          "type": "address"
        },
        {
          "internalType": "string",
          "name": "_institute_name",
          "type": "string"
        },
        {
          "internalType": "string",
          "name": "_institute_acronym",
          "type": "string"
        },
        {
          "internalType": "string",
          "name": "_institute_link",
          "type": "string"
        },
        {
          "components": [
            {
              "internalType": "string",
              "name": "course_name",
              "type": "string"
            }
          ],
          "internalType": "struct Institution.Course[]",
          "name": "_institute_courses",
          "type": "tuple[]"
        }
      ],
      "name": "addInstitute",
      "outputs": [],
      "stateMutability": "nonpayable",
      "type": "function"
    },
    {
      "inputs": [],
      "name": "getInstituteData",
      "outputs": [
        {
          "internalType": "string",
          "name": "",
          "type": "string"
        },
        {
          "internalType": "string",
          "name": "",
          "type": "string"
        },
        {
          "internalType": "string",
          "name": "",
          "type": "string"
        },
        {
          "components": [
            {
              "internalType": "string",
              "name": "course_name",
              "type": "string"
            }
          ],
          "internalType": "struct Institution.Course[]",
          "name": "",
          "type": "tuple[]"
        }
      ],
      "stateMutability": "view",
      "type": "function",
      "constant": true
    },
    {
      "inputs": [
        {
          "internalType": "address",
          "name": "_address",
          "type": "address"
        }
      ],
      "name": "getInstituteData",
      "outputs": [
        {
          "internalType": "string",
          "name": "",
          "type": "string"
        },
        {
          "internalType": "string",
          "name": "",
          "type": "string"
        },
        {
          "internalType": "string",
          "name": "",
          "type": "string"
        },
        {
          "components": [
            {
              "internalType": "string",
              "name": "course_name",
              "type": "string"
            }
          ],
          "internalType": "struct Institution.Course[]",
          "name": "",
          "type": "tuple[]"
        }
      ],
      "stateMutability": "view",
      "type": "function",
      "constant": true
    },
    {
      "inputs": [
        {
          "internalType": "address",
          "name": "_address",
          "type": "address"
        }
      ],
      "name": "checkInstitutePermission",
      "outputs": [
        {
          "internalType": "bool",
          "name": "",
          "type": "bool"
        }
      ],
      "stateMutability": "view",
      "type": "function",
      "constant": true
    }
  ],
  "bytecode": "0x608060405234801561001057600080fd5b50336000806101000a81548173ffffffffffffffffffffffffffffffffffffffff021916908373ffffffffffffffffffffffffffffffffffffffff160217905550611a1c806100606000396000f3fe608060405234801561001057600080fd5b50600436106100575760003560e01c80630334917c1461005c578063086f5a14146100785780637c0edcdf146100995780638da5cb5b146100cc578063b350ce3c146100ea575b600080fd5b6100766004803603810190610071919061124d565b61011a565b005b610080610422565b60405161009094939291906114f6565b60405180910390f35b6100b360048036038101906100ae9190611557565b6107be565b6040516100c394939291906114f6565b60405180910390f35b6100d4610c57565b6040516100e19190611593565b60405180910390f35b61010460048036038101906100ff9190611557565b610c7b565b60405161011191906115c9565b60405180910390f35b6000600160008773ffffffffffffffffffffffffffffffffffffffff1673ffffffffffffffffffffffffffffffffffffffff168152602001908152602001600020600001805461016990611613565b80601f016020809104026020016040519081016040528092919081815260200182805461019590611613565b80156101e25780601f106101b7576101008083540402835291602001916101e2565b820191906000526020600020905b8154815290600101906020018083116101c557829003601f168201915b50505050509050600081511461022d576040517f08c379a0000000000000000000000000000000000000000000000000000000008152600401610224906116b6565b60405180910390fd5b6000825111610271576040517f08c379a000000000000000000000000000000000000000000000000000000000815260040161026890611722565b60405180910390fd5b604051806060016040528086815260200185815260200184815250600160008873ffffffffffffffffffffffffffffffffffffffff1673ffffffffffffffffffffffffffffffffffffffff16815260200190815260200160002060008201518160000190805190602001906102e7929190610eaa565b506020820151816001019080519060200190610304929190610eaa565b506040820151816002019080519060200190610321929190610eaa565b5090505060005b82518110156103e257600260008873ffffffffffffffffffffffffffffffffffffffff1673ffffffffffffffffffffffffffffffffffffffff16815260200190815260200160002083828151811061038357610382611742565b5b60200260200101519080600181540180825580915050600190039060005260206000200160009091909190915060008201518160000190805190602001906103cc929190610eaa565b50505080806103da906117aa565b915050610328565b507fcc7604fcd5c45ed3c7605e263d6c59f75739c368ef78098126fa9f54443b314f8560405161041291906117f2565b60405180910390a1505050505050565b6060806060806000600160003373ffffffffffffffffffffffffffffffffffffffff1673ffffffffffffffffffffffffffffffffffffffff16815260200190815260200160002060405180606001604052908160008201805461048490611613565b80601f01602080910402602001604051908101604052809291908181526020018280546104b090611613565b80156104fd5780601f106104d2576101008083540402835291602001916104fd565b820191906000526020600020905b8154815290600101906020018083116104e057829003601f168201915b5050505050815260200160018201805461051690611613565b80601f016020809104026020016040519081016040528092919081815260200182805461054290611613565b801561058f5780601f106105645761010080835404028352916020019161058f565b820191906000526020600020905b81548152906001019060200180831161057257829003601f168201915b505050505081526020016002820180546105a890611613565b80601f01602080910402602001604051908101604052809291908181526020018280546105d490611613565b80156106215780601f106105f657610100808354040283529160200191610621565b820191906000526020600020905b81548152906001019060200180831161060457829003601f168201915b50505050508152505090506000816000015190506000815111610679576040517f08c379a000000000000000000000000000000000000000000000000000000000815260040161067090611886565b60405180910390fd5b816000015182602001518360400151600260003373ffffffffffffffffffffffffffffffffffffffff1673ffffffffffffffffffffffffffffffffffffffff16815260200190815260200160002080805480602002602001604051908101604052809291908181526020016000905b828210156107a85783829060005260206000200160405180602001604052908160008201805461071790611613565b80601f016020809104026020016040519081016040528092919081815260200182805461074390611613565b80156107905780601f1061076557610100808354040283529160200191610790565b820191906000526020600020905b81548152906001019060200180831161077357829003601f168201915b505050505081525050815260200190600101906106e8565b5050505090509550955095509550505090919293565b60608060608060008054906101000a900473ffffffffffffffffffffffffffffffffffffffff1673ffffffffffffffffffffffffffffffffffffffff163373ffffffffffffffffffffffffffffffffffffffff16638da5cb5b6040518163ffffffff1660e01b8152600401602060405180830381865afa158015610846573d6000803e3d6000fd5b505050506040513d601f19601f8201168201806040525081019061086a91906118bb565b73ffffffffffffffffffffffffffffffffffffffff16146108c0576040517f08c379a00000000000000000000000000000000000000000000000000000000081526004016108b79061195a565b60405180910390fd5b6000600160008773ffffffffffffffffffffffffffffffffffffffff1673ffffffffffffffffffffffffffffffffffffffff16815260200190815260200160002060405180606001604052908160008201805461091c90611613565b80601f016020809104026020016040519081016040528092919081815260200182805461094890611613565b80156109955780601f1061096a57610100808354040283529160200191610995565b820191906000526020600020905b81548152906001019060200180831161097857829003601f168201915b505050505081526020016001820180546109ae90611613565b80601f01602080910402602001604051908101604052809291908181526020018280546109da90611613565b8015610a275780601f106109fc57610100808354040283529160200191610a27565b820191906000526020600020905b815481529060010190602001808311610a0a57829003601f168201915b50505050508152602001600282018054610a4090611613565b80601f0160208091040260200160405190810160405280929190818152602001828054610a6c90611613565b8015610ab95780601f10610a8e57610100808354040283529160200191610ab9565b820191906000526020600020905b815481529060010190602001808311610a9c57829003601f168201915b50505050508152505090506000816000015190506000815111610b11576040517f08c379a0000000000000000000000000000000000000000000000000000000008152600401610b08906119c6565b60405180910390fd5b816000015182602001518360400151600260008b73ffffffffffffffffffffffffffffffffffffffff1673ffffffffffffffffffffffffffffffffffffffff16815260200190815260200160002080805480602002602001604051908101604052809291908181526020016000905b82821015610c4057838290600052602060002001604051806020016040529081600082018054610baf90611613565b80601f0160208091040260200160405190810160405280929190818152602001828054610bdb90611613565b8015610c285780601f10610bfd57610100808354040283529160200191610c28565b820191906000526020600020905b815481529060010190602001808311610c0b57829003601f168201915b50505050508152505081526020019060010190610b80565b505050509050955095509550955050509193509193565b60008054906101000a900473ffffffffffffffffffffffffffffffffffffffff1681565b600080600160008473ffffffffffffffffffffffffffffffffffffffff1673ffffffffffffffffffffffffffffffffffffffff168152602001908152602001600020604051806060016040529081600082018054610cd890611613565b80601f0160208091040260200160405190810160405280929190818152602001828054610d0490611613565b8015610d515780601f10610d2657610100808354040283529160200191610d51565b820191906000526020600020905b815481529060010190602001808311610d3457829003601f168201915b50505050508152602001600182018054610d6a90611613565b80601f0160208091040260200160405190810160405280929190818152602001828054610d9690611613565b8015610de35780601f10610db857610100808354040283529160200191610de3565b820191906000526020600020905b815481529060010190602001808311610dc657829003601f168201915b50505050508152602001600282018054610dfc90611613565b80601f0160208091040260200160405190810160405280929190818152602001828054610e2890611613565b8015610e755780601f10610e4a57610100808354040283529160200191610e75565b820191906000526020600020905b815481529060010190602001808311610e5857829003601f168201915b5050505050815250509050600081600001519050600081511115610e9e57600192505050610ea5565b6000925050505b919050565b828054610eb690611613565b90600052602060002090601f016020900481019282610ed85760008555610f1f565b82601f10610ef157805160ff1916838001178555610f1f565b82800160010185558215610f1f579182015b82811115610f1e578251825591602001919060010190610f03565b5b509050610f2c9190610f30565b5090565b5b80821115610f49576000816000905550600101610f31565b5090565b6000604051905090565b600080fd5b600080fd5b600073ffffffffffffffffffffffffffffffffffffffff82169050919050565b6000610f8c82610f61565b9050919050565b610f9c81610f81565b8114610fa757600080fd5b50565b600081359050610fb981610f93565b92915050565b600080fd5b600080fd5b6000601f19601f8301169050919050565b7f4e487b7100000000000000000000000000000000000000000000000000000000600052604160045260246000fd5b61101282610fc9565b810181811067ffffffffffffffff8211171561103157611030610fda565b5b80604052505050565b6000611044610f4d565b90506110508282611009565b919050565b600067ffffffffffffffff8211156110705761106f610fda565b5b61107982610fc9565b9050602081019050919050565b82818337600083830152505050565b60006110a86110a384611055565b61103a565b9050828152602081018484840111156110c4576110c3610fc4565b5b6110cf848285611086565b509392505050565b600082601f8301126110ec576110eb610fbf565b5b81356110fc848260208601611095565b91505092915050565b600067ffffffffffffffff8211156111205761111f610fda565b5b602082029050602081019050919050565b600080fd5b600080fd5b600080fd5b60006020828403121561115657611155611136565b5b611160602061103a565b9050600082013567ffffffffffffffff8111156111805761117f61113b565b5b61118c848285016110d7565b60008301525092915050565b60006111ab6111a684611105565b61103a565b905080838252602082019050602084028301858111156111ce576111cd611131565b5b835b8181101561121557803567ffffffffffffffff8111156111f3576111f2610fbf565b5b8086016112008982611140565b855260208501945050506020810190506111d0565b5050509392505050565b600082601f83011261123457611233610fbf565b5b8135611244848260208601611198565b91505092915050565b600080600080600060a0868803121561126957611268610f57565b5b600061127788828901610faa565b955050602086013567ffffffffffffffff81111561129857611297610f5c565b5b6112a4888289016110d7565b945050604086013567ffffffffffffffff8111156112c5576112c4610f5c565b5b6112d1888289016110d7565b935050606086013567ffffffffffffffff8111156112f2576112f1610f5c565b5b6112fe888289016110d7565b925050608086013567ffffffffffffffff81111561131f5761131e610f5c565b5b61132b8882890161121f565b9150509295509295909350565b600081519050919050565b600082825260208201905092915050565b60005b83811015611372578082015181840152602081019050611357565b83811115611381576000848401525b50505050565b600061139282611338565b61139c8185611343565b93506113ac818560208601611354565b6113b581610fc9565b840191505092915050565b600081519050919050565b600082825260208201905092915050565b6000819050602082019050919050565b600082825260208201905092915050565b600061140882611338565b61141281856113ec565b9350611422818560208601611354565b61142b81610fc9565b840191505092915050565b6000602083016000830151848203600086015261145382826113fd565b9150508091505092915050565b600061146c8383611436565b905092915050565b6000602082019050919050565b600061148c826113c0565b61149681856113cb565b9350836020820285016114a8856113dc565b8060005b858110156114e457848403895281516114c58582611460565b94506114d083611474565b925060208a019950506001810190506114ac565b50829750879550505050505092915050565b600060808201905081810360008301526115108187611387565b905081810360208301526115248186611387565b905081810360408301526115388185611387565b9050818103606083015261154c8184611481565b905095945050505050565b60006020828403121561156d5761156c610f57565b5b600061157b84828501610faa565b91505092915050565b61158d81610f81565b82525050565b60006020820190506115a86000830184611584565b92915050565b60008115159050919050565b6115c3816115ae565b82525050565b60006020820190506115de60008301846115ba565b92915050565b7f4e487b7100000000000000000000000000000000000000000000000000000000600052602260045260246000fd5b6000600282049050600182168061162b57607f821691505b60208210810361163e5761163d6115e4565b5b50919050565b7f496e73746974757465207769746820746f6b656e20616c72656164792065786960008201527f7374730000000000000000000000000000000000000000000000000000000000602082015250565b60006116a0602383611343565b91506116ab82611644565b604082019050919050565b600060208201905081810360008301526116cf81611693565b9050919050565b7f41746c65617374206f6e6520636f75727365206d757374206265206164646564600082015250565b600061170c602083611343565b9150611717826116d6565b602082019050919050565b6000602082019050818103600083015261173b816116ff565b9050919050565b7f4e487b7100000000000000000000000000000000000000000000000000000000600052603260045260246000fd5b7f4e487b7100000000000000000000000000000000000000000000000000000000600052601160045260246000fd5b6000819050919050565b60006117b5826117a0565b91507fffffffffffffffffffffffffffffffffffffffffffffffffffffffffffffffff82036117e7576117e6611771565b5b600182019050919050565b6000602082019050818103600083015261180c8184611387565b905092915050565b7f496e73746974757465206163636f756e7420646f6573206e6f7420657869737460008201527f2100000000000000000000000000000000000000000000000000000000000000602082015250565b6000611870602183611343565b915061187b82611814565b604082019050919050565b6000602082019050818103600083015261189f81611863565b9050919050565b6000815190506118b581610f93565b92915050565b6000602082840312156118d1576118d0610f57565b5b60006118df848285016118a6565b91505092915050565b7f496e636f727265637420736d61727420636f6e7472616374202620617574686f60008201527f72697a6174696f6e732100000000000000000000000000000000000000000000602082015250565b6000611944602a83611343565b915061194f826118e8565b604082019050919050565b6000602082019050818103600083015261197381611937565b9050919050565b7f496e7374697475746520646f6573206e6f742065786973742100000000000000600082015250565b60006119b0601983611343565b91506119bb8261197a565b602082019050919050565b600060208201905081810360008301526119df816119a3565b905091905056fea26469706673582212206b7cb1763f6ec6596d6c56b888e170a07d161b7c5e5e84900d1e26da4d8d2c6e64736f6c634300080d0033",
  "immutableReferences": {},
  "source": "// SPDX-License-Identifier: MIT\npragma solidity ^0.8.9;\n// pragma experimental ABIEncoderV2;\n\nimport \"./Certification.sol\";\n\ncontract Institution {\n    // State Variables\n    address public owner;\n\n    // Mappings\n    mapping(address => Institute) private institutes; // Institutes Mapping\n    mapping(address => Course[]) private instituteCourses; // Courses Mapping\n\n    // Events\n    event instituteAdded(string _instituteName);\n\n    constructor() {\n        owner = msg.sender;\n    }\n\n    struct Course {\n        string course_name;\n        // Other attributes can be added\n    }\n\n    struct Institute {\n        string institute_name;\n        string institute_acronym;\n        string institute_link;\n    }\n\n    function stringToBytes32(string memory source)\n        private\n        pure\n        returns (bytes32 result)\n    {\n        bytes memory tempEmptyStringTest = bytes(source);\n        if (tempEmptyStringTest.length == 0) {\n            return 0x0;\n        }\n        assembly {\n            result := mload(add(source, 32))\n        }\n    }\n\n    function addInstitute(\n        address _address,\n        string memory _institute_name,\n        string memory _institute_acronym,\n        string memory _institute_link,\n        Course[] memory _institute_courses\n    ) public {\n        bytes memory tempEmptyStringNameTest = bytes(\n            institutes[_address].institute_name\n        );\n        require(\n            tempEmptyStringNameTest.length == 0,\n            \"Institute with token already exists\"\n        );\n        require(\n            _institute_courses.length > 0,\n            \"Atleast one course must be added\"\n        );\n        institutes[_address] = Institute(\n            _institute_name,\n            _institute_acronym,\n            _institute_link\n        );\n        for (uint256 i = 0; i < _institute_courses.length; i++) {\n            instituteCourses[_address].push(_institute_courses[i]);\n        }\n        emit instituteAdded(_institute_name);\n    }\n\n    // Called by Institutions\n    function getInstituteData()\n        public\n        view\n        returns (\n            string memory,\n            string memory,\n            string memory,\n            Course[] memory\n        )\n    {\n        Institute memory temp = institutes[msg.sender];\n        bytes memory tempEmptyStringNameTest = bytes(temp.institute_name);\n        require(\n            tempEmptyStringNameTest.length > 0,\n            \"Institute account does not exist!\"\n        );\n        return (\n            temp.institute_name,\n            temp.institute_acronym,\n            temp.institute_link,\n            instituteCourses[msg.sender]\n        );\n    }\n\n    // Called by Smart Contracts\n    function getInstituteData(address _address)\n        public\n        view\n        returns (\n            string memory,\n            string memory,\n            string memory,\n            Course[] memory\n        )\n    {\n        require(Certification(msg.sender).owner() == owner, \"Incorrect smart contract & authorizations!\");\n        Institute memory temp = institutes[_address];\n        bytes memory tempEmptyStringNameTest = bytes(temp.institute_name);\n        require(\n            tempEmptyStringNameTest.length > 0,\n            \"Institute does not exist!\"\n        );\n        return (\n            temp.institute_name,\n            temp.institute_acronym,\n            temp.institute_link,\n            instituteCourses[_address]\n        );\n    }\n\n    function checkInstitutePermission(address _address)\n        public\n        view\n        returns (bool)\n    {\n        Institute memory temp = institutes[_address];\n        bytes memory tempEmptyStringNameTest = bytes(temp.institute_name);\n        if (tempEmptyStringNameTest.length > 0) {\n            return true;\n        } else {\n            return false;\n        }\n    }\n}\n",
  "sourcePath": "/home/talha-amin/Desktop/Certoshi/contracts/Institution.sol",
  "compiler": {
    "name": "solc",
    "version": "0.8.13+commit.abaa5c0e.Emscripten.clang"
  },
  "schemaVersion": "3.4.14",
  "updatedAt": "2023-07-29T09:11:52.506Z",
  "networkType": "ethereum",
  "devdoc": {
    "kind": "dev",
    "methods": {},
    "version": 1
  },
  "userdoc": {
    "kind": "user",
    "methods": {},
    "version": 1
  }
}